:020000040800F2
:1000000008070020CD010008BB190008891000086E
:10001000B9190008F3020008251A000800000000C2
:10002000000000000000000000000000BF190008F0
:10003000F502000800000000BD190008C119000801
:10004000E7010008E7010008E7010008E7010008F0
:10005000E7010008E7010008E7010008E7010008E0
:10006000E7010008E7010008E7010008E7010008D0
:10007000E7010008E7010008E7010008E7010008C0
:10008000E7010008E7010008E7010008E7010008B0
:10009000E7010008E7010008E7010008E7010008A0
:1000A000E7010008E7010008E7010008E701000890
:1000B000E7010008E7010008E7010008E701000880
:1000C000E7010008E7010008E7010008E701000870
:1000D000E7010008E7010008E7010008E701000860
:1000E000E7010008E7010008E7010008E701000850
:1000F000E7010008E7010008E7010008E701000840
:10010000E7010008E7010008E7010008E70100082F
:10011000E7010008E7010008E7010008E70100081F
:10012000E7010008E7010008E7010008E70100080F
:1001300000F002F800F03AF80AA090E8000C8244BF
:100140008344AAF10107DA4501D100F02FF8AFF29C
:10015000090EBAE80F0013F0010F18BFFB1A43F0A5
:1001600001031847CC290000EC290000103A24BFF5
:1001700078C878C1FAD8520724BF30C830C144BF0C
:1001800004680C607047000000230024002500264E
:10019000103A28BF78C1FBD8520728BF30C148BFEA
:1001A0000B6070471FB51FBD10B510BD00F06CF897
:1001B0001146FFF7F7FF01F0F1FE00F08AF803B4F3
:1001C000FFF7F2FF03BC00F08DF8000009488047FC
:1001D00009480047FEE7FEE7FEE7FEE7FEE7FEE729
:1001E000FEE7FEE7FEE7FEE704480549054A064B41
:1001F00070470000231A00083101000808010020A0
:100200000807002008030020080300204FF0000228
:1002100000B5134694469646203922BFA0E80C50FC
:10022000A0E80C50B1F12001BFF4F7AF090728BFD7
:10023000A0E80C5048BF0CC05DF804EB890028BF53
:1002400040F8042B08BF704748BF20F8022B11F07C
:10025000804F18BF00F8012B7047704770477047F8
:1002600010B500F009F8006810BD10B5044600F0A4
:1002700003F8046010BD000000487047A40000208F
:1002800000487047A40000207546FFF7F9FFAE460E
:1002900005006946534620F00700854618B020B592
:1002A000FFF7A2FFBDE820404FF000064FF0000727
:1002B0004FF000084FF0000B21F00701AC46ACE80E
:1002C000C009ACE8C009ACE8C009ACE8C0098D467B
:1002D000704710B50446AFF300802046BDE81040DB
:1002E000FFF76DBF01491820ABBEFEE726000200F4
:1002F0007047FEE7704772B6FEE7000070B504462F
:1003000000F00AF90546601C02D004480078044455
:1003100000F002F9401BA042FAD370BD000000209B
:100320002DE9F84FDFF8C8910024A9F1040B23460A
:100330000F2709F1040AABF1040ED1E00125A54015
:1003400006EA0502AA4276D1DFF8A8C14E68A6EBFC
:100350000C0866452BD00DDC032E34D005DC36B3FB
:10036000012E19D0022E2FD11BE0112E16D0122EE5
:100370002AD119E0B8F5881F19D006DCB8F5803FFE
:1003800015D0B8F5801F1FD111E0B8F5001F0ED0B1
:10039000B8F5041F18D10AE0CB6815E0CB681B1D27
:1003A00012E0CB6808330FE0CB680C330CE08B68AD
:1003B0002BB1012B4FF0080303D0456104E0042367
:1003C00002E0056100E00023FF2A01D8064601E0B3
:1003D00000F104064FEA840501D9A5F12005D6F8FD
:1003E000008007FA05FC28EA0C0803FA05F548EA3C
:1003F0000508C6F800804D68ED0070D53E4DAE6929
:1004000046F00106AE61AD6924F0030605F0010572
:1004100000953A4D06EB050CDCF80850A607360FA0
:1004200007FA06F825EA0805DFF8D480404503D12D
:100430004FF0000825E052E0DFF8C880404502D1C7
:100440004FF001081DE0DFF8C080404502D14FF0B9
:10045000020816E0DFF8B480404502D14FF00308EF
:100460000FE0DFF8AC80404502D14FF0040808E00F
:10047000DFF8A080404502D14FF0050801E04FF0C1
:10048000060808FA06F848EA0508CCF808804D681E
:10049000D9F80060ED024D4601D5164300E09643C1
:1004A0002E604D68DAF80060AD02554601D516435E
:1004B00000E096432E604D68DBF80060AD035D46BA
:1004C00001D5164300E096432E604D68DEF80060CB
:1004D000ED03754601D5164300E096432E60641C7B
:1004E0000A681646E2407FF429AFBDE8F88F0000A5
:1004F00008040140000011100010024000000140FB
:1005000000080140000C01400010014000140140AF
:1005100000180140001C014001488068704700003D
:100520000000002070B5040025D094F83D0000259F
:1005300020B984F83C50204600F07EFA242084F84C
:100540003D002068016821F0010101602068016818
:1005500041F4004101602068016821F4004101601C
:1005600000F0B8FB4D4A6168914201D84C4900E067
:100570004C49884201D2012070BD4B492368B0FB31
:10058000F1F15E6826F03F060E435E6063689342B9
:1005900006D94FF4967359434FF47A73B1FBF3F1D4
:1005A0002368491C1E6A26F03F06314319626168C0
:1005B000914210D84900401EB0FBF1F2521CC2F328
:1005C0000B02042A01D2042022E0B0FBF1F0401C0F
:1005D000C0F30B001CE0A268F2B301EBC10303EB14
:1005E0000116431EB3FBF6F35B1C43F480431B056B
:1005F00049D092B301EBC10202EB0111401EB0FBE6
:10060000F1F0401CC0F30B0040F4804040F4004087
:100610002168CA694CF6FF739A431043C861D4E954
:10062000071001432068026822F0C00211430160F4
:10063000D4E9030101432068826848F2FF339A43FA
:1006400011438160D4E9050108432168CA6822F09A
:10065000FF021043C86001E00EE016E02068016868
:1006600041F0010101602564202084F83D002563EC
:1006700084F83E50002070BD01EB4106431EB3FBE1
:10068000F6F35B1CB3E70120C2E701EB4101401E1A
:10069000B0FBF1F0401CC0F30B00B7E7A0860100EF
:1006A00080841E0000093D0040420F002DE9FF4FED
:1006B00083B00025DDE910799A4693460446DDF8BB
:1006C00048800095FFF728FF064694F83D00202853
:1006D0007CD11923012288492046009600F0EAFDCA
:1006E0000028F5D194F83C0001286FD0012084F84F
:1006F0003C0020680168C90703D1016841F001018D
:1007000001602068016821F400610160222084F802
:100710003D00402084F83E0025646762A4F82A90DA
:10072000608D20857548E062CDE9008653465A46C3
:100730002046049900F0C0FC00287CD1208DDFF811
:10074000C091202768B1012814D0022820680168D0
:100750001ED041F480610160206841698069009089
:10076000BCE02068416981690091016841F4007131
:100770000160B3E02068016821F48061016072B615
:100780002068416981690091016841F400710AE0C3
:1007900041F40061016072B620684169816900918D
:1007A000016821F48061016062B697E0032865D892
:1007B00001280CD0022843464FF00002494620464B
:1007C00000960BD000F076FDA8BB0CE091E032461D
:1007D0004146204600F014FE68BB72E000F06AFD5E
:1007E00048BB72B633E02068016821F48061016083
:1007F00072B620680069616A0870606A401C6062B5
:10080000208D401E2085608D401E60853D4846F24B
:10081000A8110068B0FBF1F0C0EBC00000EB800055
:100820000090401E009007D020684069C0434007F8
:100830000DD50098F5E727E044F8305F6773A5739E
:10084000206940F02000206162B625731CE020681A
:10085000016841F40071016020680069616A0870F4
:10086000606A401C6062218D491E2185618D491E90
:10087000618562B621680969017026E03246414609
:10088000204600F0BDFD18B1012007B0BDE8F08F93
:1008900020680069616A0870606A401C6062208D8F
:1008A000401E81B22185608D401E608520684269AE
:1008B000D243520712D4032903D1016821F4806185
:1008C000016020680069616A0870606A401C6062AB
:1008D000208D401E2085608D401E6085208D002863
:1008E0007FF464AF84F83D7084F83E5084F83C5047
:1008F000CBE70220C9E70000020010000000FFFF64
:10090000040001000C0000202DE9FF4F83B09A463F
:10091000DDE9119793460446DDF84080FFF7FCFDC2
:10092000054694F83D0020287FD119230122404933
:100930002046009500F0BEFC002876D194F83C00DB
:10094000012872D0012084F83C0020680168C907A2
:1009500003D1016841F0010101602068016821F4C0
:1009600000610160212084F83D00402084F83E00B1
:1009700000262664C4F82480A4F82A90608D20857F
:100980002C48E062CDE9007553465A46204604994A
:1009900000F010FC70B930E02A463946204600F0DD
:1009A00067FD58B1206C042804D12068016841F427
:1009B00000710160012007B0BDE8F08F606A216816
:1009C00000780861606A401C6062218D491E89B20E
:1009D0002185628D521E628522685369DB435B0765
:1009E0000BD469B100781061606A401C6062208D90
:1009F000401E2085608D401E6085208D0028CBD153
:100A00002A463946204600F029FC0028CAD154F86D
:100A10003D0B016841F400710160202004F81E09BB
:100A2000E67766770020C6E7FFE70220C3E700000D
:100A3000020010000000FFFF10B586B000210091F9
:100A400001910291039100680F4988421AD10F4C1D
:100A5000A06940F00800A061A069694600F00800A4
:100A60000490C020009012200190032003900848B9
:100A7000FFF756FCE06940F40010E061E06900F423
:100A80000010049006B010BD005400400010024059
:100A9000000C01400248816802781144816070476F
:100AA00000000020074810B5016841F01001016006
:100AB000032000F067F80F2000F006F800F024F89B
:100AC000002010BD0020024070B50D4D04464FF4CB
:100AD0007A712878B1FBF0F00A490968B1FBF0F0AF
:100AE00000F0BEFA48B9102C07D200222146501E51
:100AF00000F028F800206C6070BD012070BD00007F
:100B0000000000200C0000200C4808B5816941F06D
:100B100001018161816901F001010091C16941F028
:100B20008051C161C06900F0805000900448416864
:100B300021F0E06141F00071416008BD0010024009
:100B400000000140F0B40E4B1B680C46C3F30223B7
:100B5000C3F10705042D00D90425191D072901D269
:100B6000002300E0DB1E012606FA05F1491E2140A4
:100B700099409E40761E16403143F0BC00F066BF9F
:100B80000CED00E0064900F0070208684FF6FF038D
:100B9000184040EA0220034A1043086070470000F2
:100BA0000CED00E00000FA052DE9F0470F460500C6
:100BB00061D0434E306800F00700B84209D2306877
:100BC00020F0070038433060306800F00700B8427A
:100BD00051D128683B4C810712D5400703D5606886
:100BE00040F4E06060602878000703D5606840F456
:100BF000605060606068A96820F0F00008436060A1
:100C00002878C00728D06868012810D021680228F9
:100C100010D0890700292EDA616821F00301014311
:100C20006160FFF779FC804641F288390DE0216868
:100C30008903EFE78901EDE7FFF76EFCA0EB080100
:100C4000494502D90320BDE8F0876068696800F073
:100C50000C00B0EB810FEFD1306800F00700B84214
:100C60000BD9306820F0070038433060306800F05E
:100C70000700B84201D00120E5E72878400705D5F4
:100C80006068E96820F4E060084360602878000745
:100C900006D56068296920F4605040EAC1006060B0
:100CA00000F028F86168084AC1F30311515CC8409C
:100CB0000649086006480068FFF706FF0020C2E703
:100CC0000020024000100240182B00080C000020F9
:100CD000040000200448054900684968044AC1F33B
:100CE0000221515CC84070470C00002000100240F7
:100CF000282B00080E4A51680E4801F00C03042B03
:100D000011D0082B0FD10C48C1F38343C903C05C39
:100D10000AD55168084AC1F34041921E515C054A08
:100D20005043B0FBF1F0704704494843704700005E
:100D30000010024000127A00082B000800093D0054
:100D40002DE9F84F040070D02078C04DC00749D07D
:100D50006868C0F38100012807D06868C0F381008B
:100D6000022809D16868C00306D52868800339D5F0
:100D700060680028E7D035E06068B0F5803F0BD0B0
:100D800010B1B0F5A02F11D0286820F48030286071
:100D9000286820F4802002E0286840F48030286031
:100DA000606890B1FFF7B8FB06460AE0286840F497
:100DB00080202860F0E700BFFFF7AEFB801B6428AF
:100DC00073D828688003F7D50CE0FFF7A5FB06462B
:100DD00005E000BFFFF7A0FB801B6428F0D828685F
:100DE0008003F7D420789A4E80074FF001094FF026
:100DF000000839D5686810F00C0F07D06868C0F398
:100E00008100022809D16868C00306D428688007D9
:100E100014D52069012808D110E02069B0B1C6F8C6
:100E20000090FFF779FB074605E00AE1FFF774FB46
:100E3000C01B0228C4D828688007F7D528686169D4
:100E400020F0F80040EAC10028600DE0C6F80080FC
:100E5000FFF762FB074604E0FFF75EFBC01B0228BA
:100E600023D828688007F7D4207800072CD5794844
:100E7000A169D9B1C0F80090FFF74EFB074604E026
:100E8000FFF74AFBC01B02280FD8686A8007F7D516
:100E900071484FF4FA510068B0FBF1F0009000BFC8
:100EA0000098411E0091FAD20EE080E0C0F8008068
:100EB000FFF732FB074604E0FFF72EFBC01B0228BA
:100EC00075D8686A8007F7D42078400760D5E8694C
:100ED0000027C00008D4E86940F08050E861E86964
:100EE000012700F0805000905C480168C90513D4C8
:100EF0000168834641F480710160FFF70DFB824673
:100F000006E000BFFFF708FBA0EB0A0064284ED8FC
:100F1000DBF80000C005F5D5E06801280AD008B16B
:100F2000052813D0286A20F001002862286A20F0E2
:100F3000040002E0286A40F001002862E06841F203
:100F4000883B98B1FFF7E8FA82460BE0286A40F048
:100F500004002862EEE700BFFFF7DEFAA0EB0A010B
:100F600059455AD8286A8007F6D50CE0FFF7D4FA1D
:100F7000824605E0FFF7D0FAA0EB0A0159454CD8AC
:100F8000286A8007F6D41FB1E86920F08050E86134
:100F9000E06988B36968C1F38101022944D002285D
:100FA000C6F8608004D0FFF7B7FA044638E034E0B2
:100FB000FFF7B2FA074604E0FFF7AEFAC01B0228BB
:100FC0002BD828688001F7D4206AB0F5803F05D17E
:100FD0006868A16820F4003008436860D4E908011B
:100FE0000843696821F4741108436860C6F860908A
:100FF000FFF792FA044606E025E000BFFFF78CFAFF
:10100000001B022809D828688001F7D51BE000BF23
:10101000FFF782FA001B022802D90320BDE8F88FEF
:1010200028688001F4D40EE00128F7D06868226AAD
:1010300000F48031914204D1616A00F4701088425A
:1010400001D00120EAE70020E8E70000001002409C
:1010500000004242800442420C0000200070004028
:1010600010B5401EB0F1807F01D3012010BD4FF0BC
:10107000E02460610F21601700F0E8FC0020A0610F
:1010800007202061002010BDFEE701684A69D243B5
:1010900052050FD46FF480624A61002140F8301F7E
:1010A000202242738173026942F0040202610173DB
:1010B00001207047002070472DE9F84F0446006872
:1010C00089460B9D01689846174641F4806101608E
:1010D0002068016841F48071016000954FF0011BA8
:1010E0000022594620460A9B00F0E4F84FF4007AAB
:1010F00040B120680068C00501D5C4F840A00320B5
:10110000BDE8F88F216809F0FE0008612B462849E8
:1011100020460A9A00F016F9F0BB20684169806900
:1011200000902A4620460A9900F0A2F940B1206CAE
:1011300004283AD12068016841F40071016034E06C
:10114000FEB2B8F1010F09D02168380A08612A46B9
:1011500020460A9900F08CF90028E8D12068066141
:101160002A4620460A9900F083F90028DFD120683A
:10117000016841F4807101600095002259462046C3
:101180000A9B00F097F80028B3D1216809F0FF000E
:1011900040F00100086100E007E02B4604492046CA
:1011A0000A9A00F0CFF80028AAD00120A8E7000092
:1011B000020001002DE9F843044600680D46DDE910
:1011C000089701689846164641F4807101604B46C5
:1011D00000224FF001112046009700F06BF848B153
:1011E00020680068C00502D54FF400702064032019
:1011F000BDE8F883216805F0FE0008613B464A46D9
:101200001549204600F09EF888B920684169806938
:1012100000903A464946204600F02AF948B1206C31
:10122000042804D12068016841F4007101600120A4
:10123000DEE7F5B2B8F1010F09D02168300A086184
:101240003A464946204600F013F90028E7D12068C5
:1012500005610020CCE700000200010070B51646D1
:101260000D4604461EE02046FFF70FFF08B101209F
:1012700070BD681C16D0FFF74FF9801BA84200D83C
:1012800085B920684069C04340070BD5002044F869
:10129000300F20216173A073216941F02001216189
:1012A0002073E4E720684069C0434007DBD4002096
:1012B00070BD00002DE9F047984617460D460446DC
:1012C000C1F30746DDF820902AE000BFB8F1FF3FE8
:1012D00026D0FFF721F9A0EB0901414502D8B8F16A
:1012E000000F1DD12068012E16D0806925EA00006C
:1012F0000004000C12D00020B84211D1002044F8A4
:10130000300F20216173A073216941F02001216118
:1013100020730120BDE8F0874069E7E70120EBE793
:101320002068012E0AD0806925EA00000004000C24
:1013300006D00020B842C9D00020EBE74069F3E7AF
:101340000120F7E72DE9F047984616460D4604467A
:101350004FF000094FF0200AC1F3074723E020684F
:101360004069C043400515D42068016841F400710C
:10137000016021686FF480604861C4F8309084F89F
:101380003DA084F83E90216C41F00401216484F872
:101390003C9021E0701C06D0FFF7BEF8A0EB0800DF
:1013A000B04203D816B1012F1FD021E02068012FD1
:1013B00015D0806925EA00000004000C18D000BF99
:1013C00044F8309F84F80DA084F80E90216941F014
:1013D0002001216184F80C900120BDE8F08740696C
:1013E00025EA00000004000CEAD12068406901E011
:1013F0002068806925EA00000004000CAFD1ECE70A
:101400002DE9F041002590460E460446202728E0AD
:101410004069C043C0060CD454F8301B6FF0100074
:10142000486144F810596777A577206A20622577CC
:1014300014E0FFF771F8A0EB0800B04200D886B9BD
:1014400020684069C04340060BD544F8305F67739D
:10145000A573206940F02000206125730120BDE8BC
:10146000F08120684169C9434906D1D40020F6E7DC
:1014700070B516460D4604461EE02046FFF705FEF1
:1014800008B1012070BD681C16D0FFF745F8801B1D
:10149000A84200D885B920684069C04300060BD532
:1014A000002044F8300F20216173A073216941F0BE
:1014B000200121612073E4E720684069C0430006F1
:1014C000DBD4002070BD00002DE9FF41002401267F
:1014D00003AF8DF80C40651E0097CDE901653346DA
:1014E0006B22D0210D48FFF70FFA8DF80C400097C2
:1014F000CDE9016501231C22D0210848FFF704FA39
:101500008DF80C400097CDE9016501231B22D02105
:101510000248FFF7F9F9BDE8FF8100002C00002028
:10152000F0B587B004464FF0FF320E2103A88DE8D6
:10153000070001233B22D0212F48FFF7B7F8BDF861
:101540000C0040BA00B201F083F86FF00D05294697
:1015500001F09BFA2060BDF80E0040BA00B201F025
:1015600077F8294601F091FA6060BDF8100040BAA2
:1015700000B201F06DF8294601F087FAA060BDF8CD
:10158000140040BA00B201F063F81C4D294600F087
:101590009DFF00F007FF1A4F4FF0663632463B467C
:1015A00000F054FD00F020FDE060BDF8160040BAE8
:1015B00000B201F04DF8294600F088FF00F0F2FE7D
:1015C00032463B4600F042FD00F00EFD2061BDF8C2
:1015D000180040BA00B201F03BF8294600F076FF4F
:1015E00000F0E0FE32463B4600F030FD00F0FCFC2F
:1015F000606107B0F0BD00002C0000200000034334
:1016000066A64C400D4808B5816941F02001816112
:10161000816901F020010091816941F0040181613B
:10162000816901F004010091816941F00801816143
:10163000806900F00800009008BD00000010024022
:101640000D4810B50B4901600C49416000214FF471
:1016500080428160C0E9031241618161C161016220
:10166000FEF760FF002803D0BDE81040FEF743BE40
:1016700010BD0000005400402C000020801A06001D
:101680002DE9F04F0C46D0E90271D0E900568DB03B
:101690008B4601690291D0F8148015F0FF4F05D1F7
:1016A00016F0FF4F02D117F0FF4F7DD039460846A4
:1016B00000F0E6FF82463146084600F0E1FF814631
:1016C0002946084600F0DCFF494600F097FE5146E7
:1016D00000F094FE00F042FC81460146284600F0EE
:1016E000CFFF06904946304600F0CAFF05904946B4
:1016F000384600F0C5FF0490D4F8089026684946A3
:10170000304600F0BDFFE5686768824629463846E6
:1017100000F0B6FF514601F011F9824629464846CD
:1017200000F0AEFF81463946304600F0A9FF494639
:1017300000F064FE07462946084600F0A1FF054672
:101740003146084600F09CFF4FF07C5101F0F6F85E
:10175000294600F053FE05463946049800F090FFF4
:1017600006462946059800F08BFF314601F0E6F861
:1017700007902946069800F083FF054651460498D5
:1017800000F07EFF294601F0D9F8814651460598C0
:1017900000F076FF05463946069800F071FF2946AD
:1017A00001F0CCF8064600E04CE07E4F0798394641
:1017B00000F066FFDFF8F0A1514600F061FF7B4DBD
:1017C000296800F01BFE28603946484600F058FFA3
:1017D000514600F055FF696800F010FE6860394618
:1017E000304600F04DFF514600F04AFFA96800F076
:1017F00005FEA8602968584600F000FE6968824628
:10180000029800F0FBFD0290A968404600F0F6FD4A
:10181000674F05463946079800F032FF514600F001
:10182000EDFD83463946484600F02AFF029900F054
:10183000E5FD02903946304600F022FF294600F0CF
:10184000DDFD80465B4D5846294600F019FF0390A8
:101850002946029800F014FF02902946404600F005
:101860000FFF0190D4E901502668D4F80CB08146EE
:10187000B2465846019900F003FF074648460299D0
:1018800000F0FEFE804685F00040039900F0F8FE6F
:10189000414601F053F8394601F050F8314600F066
:1018A000ADFD206080465846029900F0E9FE0746EB
:1018B0004846019900F0E4FE06465046039900F0C0
:1018C000DFFE314600F09AFD394601F037F829462F
:1018D00000F094FD606007465846039900F0D0FE82
:1018E0000A902846019900F0CBFE06465046029920
:1018F00000F0C6FE314601F021F80A9900F07EFDA5
:10190000494600F07BFDA06006464846039900F07A
:10191000B7FE81462846029900F0B2FE05465046C1
:10192000019900F0ADFE294600F068FD494601F03E
:1019300005F8594600F062FD0146E06000F0A0FEA7
:1019400081463146084600F09BFE0546394608466A
:1019500000F096FE06464146084600F091FE3146EC
:1019600000F04CFD294600F049FD494600F046FDD7
:1019700000F0F4FA05462946206800F081FE206058
:101980002946606800F07CFE60602946A06800F08F
:1019900077FEA0602946E06800F072FEE0600DB0BE
:1019A000BDE8F08F6F12033B6F12833A10000020E6
:1019B000000026426F12033AFEE7FEE770477047C9
:1019C000FFF768B830B58FB028216846FEF71EFCD7
:1019D00014210AA8FEF71AFC01210804CDE9001021
:1019E0000024029402250491CDE907504FF4E01041
:1019F00009906846FFF7A4F908B172B6FEE70F2018
:101A0000CDE90A054FF48060CDE90C4002210AA817
:101A10000E94FFF7C9F8002801D072B6FEE70FB0A8
:101A200030BD7047FEE74100080218BF04200A0ECF
:101A300018BF40F001004FF07F4232EA010108BFB9
:101A400040F00200012808BF052070470907090E71
:101A5000002804DB00F1E02080F80014704700F05B
:101A60000F0000F1E02080F8141D7047012101F003
:101A70000CB800F0C3BC0021084600F027BD6FF091
:101A80005E01080701F001B82DE9F04104464FF06E
:101A90000E4000EB4400B0F1506F204655D84FF097
:101AA000FC41B1EB440F1CD224F000404FF07E51BA
:101AB00000F0B2FE4FF0FF3100F0E7FF054600F006
:101AC0007DFA14F0004F1DBF2F4F304E80F00040C4
:101AD0002F4F08BF2F4E4FF0404100F0D1FD04467C
:101AE00005E000273E46014600F0CAFD05462A49AA
:101AF000284600F0C5FD294900F080FC294600F089
:101B0000BFFD274900F07AFC294600F0B9FD2549C0
:101B100000F074FC294600F0B3FD234900F06EFC90
:101B200080462946204600F0ABFD414600F0A8FD66
:101B300005463146204600F061FC294600F05EFC77
:101B40003946BDE8F04100F059BC4FF0E441B1EB3B
:101B5000440F08D9FFF767FF042808BFFFF78FFF7E
:101B60002046BDE8F0814FF07F41B1EB440F03D236
:101B7000BDE8F041FFF77ABF0120FEF776FBBDE834
:101B8000F041FFF778BF00000000C9BF22AAFDB9ED
:101B90000000C93F22AAFD3924FE1C3DC78AD83C5B
:101BA0001E67383D1B93993DAFAA2A3E2DE9F047A9
:101BB0004FF0684202EB40030C460546B3F1654F17
:101BC0003CBF02EB4102B2F1654F7CD2C0F3C75378
:101BD000C1F3C7529A1A1B2A06DD10F0004F14BF3A
:101BE00076487748BDE8F08712F11A0F17DA11F03E
:101BF000004F06D010F0004F0CBF72487248BDE88D
:101C0000F0872146284600F061FC0446FFF70BFFF1
:101C1000042808BFFFF733FF2046BDE8F0874200E5
:101C2000B2EB410F25D910F0004F19BF674F684E36
:101C3000684F694E224685F0004415460A4680F0FA
:101C4000004110460A1A5200B2F1807F40D248404B
:101C50006249DFF88CA110F0004F18D04FF03F48D8
:101C6000384600F06BFE07465146304600F066FEEF
:101C700017E011F0004F04BF00263746E2D010F005
:101C8000004F19BF574F584E584F594EDAE74FF093
:101C90007C58384600F0B2FB07465146304600F00B
:101CA000ADFB06464146284600F0EAFC214600F01E
:101CB000A5FB82462146404600F0E2FC294600F0A2
:101CC000ABFD514600E037E000F000FC044604E0C4
:101CD0002146284600F0FAFB0446014600F0D0FCFD
:101CE0008046444900F0CCFC434900F087FB414664
:101CF00000F0C6FC414900F081FB414600F0C0FC09
:101D00003F4900F07BFB414600F0BAFC3D4900F042
:101D100075FB05464146204600F0B2FC294600F01E
:101D2000AFFC314600F06AFB214600F067FB394604
:101D3000BDE8F04700F062BB4FF07F42B2EB400FCE
:101D400028BFB2EB410F03D2BDE8F047FFF791BEC9
:101D500040EA01035B0008BF44F0FF410AD0B2EB48
:101D6000400F08BFB2EB410F06D125F0804024F0B0
:101D7000804105460C4629E7B2EB400F12BF5FEAEF
:101D8000410245F0FF4004F000413FF41FAF4A001C
:101D900092EA40033FF51AAF002AACBF4FF09F46CE
:101DA0004FF03E56314600F06BFC0546314620466A
:101DB00000F066FC04462846214607E7DB0FC9BF52
:101DC000DB0FC93FDB0F4940DB0F49C00000C9BF33
:101DD00022AAFDB90000C93F22AAFD390060ED3EEC
:101DE000C30ACE37000049C022AA7DBA000049408C
:101DF00022AA7D3A2DAD65BD8FB8D53D0FB511BE78
:101E000061C84C3EA8AAAABE2DE9FC5F4F48FFF767
:101E100087FB4F494D48FFF733FC4D4CA1682068C4
:101E200000F02EFC0546E168606800F029FC2946B8
:101E300000F0E4FA4FF0404100F022FCFFF724FEEE
:101E4000DFF810B1594600F01BFC434900F03EFB9F
:101E50003E4D0C3D2860D4F80CA05146504600F091
:101E60000FFC0190D4F808904946484600F008FC61
:101E7000D4F8048006464146404600F001FC00903C
:101E800027683946384600F0FBFB009900F056FD04
:101E9000314600F053FD019900F0B0FA0646514674
:101EA000484600F0EDFB81464146384600F0E8FB2D
:101EB000494600F0A3FA012100F0E7FD3146FFF7A3
:101EC00075FE594600F0DCFB234900F0FFFA68601C
:101ED000E6683146304600F0D3FB0190D4F8089014
:101EE0004946484600F0CCFB0090D4F804804146B7
:101EF000404600F0C5FB276882463946384600F068
:101F0000BFFB514600F07AFA009900F017FD0199E5
:101F100000F014FD04463146384600F0B1FB064699
:101F20004946404600F0ACFB314600F067FA01211B
:101F300000F0ABFD2146FFF739FE594600F0A0FB4B
:101F4000054900F0C3FAA860BDE8FC9F8C000020A2
:101F50001C00002000003443DB0F494010B504464C
:101F6000B0F5000F01DA002010BD4FF0FF3100F096
:101F70008CFD0949A1EB6404214600F081FB214658
:101F800000F07EFB4FF07F5100F046FC2146BDE89B
:101F9000104000F075BB0000DF59375FFEF782FD8F
:101FA000FFF710FDFFF72EFBFFF74AFBFFF78CFA58
:101FB000FFF72AFF0A20FEF7A1F9F9E770B50546F9
:101FC00000F034FC044620F00040C0F1FF40C00F98
:101FD00008D025F00040C0F1FF40C00F04BF012031
:101FE000FEF743F9204670BD21F00042A2F1605295
:101FF000B2F5801F01F0004328BFD2F17F6C0BD9EE
:102000005FEA001C43EAC20242EB507018BF7047FF
:1020100028BF20F001007047B2F5801FBCBF1846F2
:1020200070474FEA410C1CF5001F02D2084600F031
:10203000EEBB70B500F062F900000089FFF7F6BF53
:102040004FF00040A0F58000704700002DE9C0412E
:1020500030B4DFF8A0C23CEA111418BF3CEA1314F4
:1020600000F0EC8081EA03051CEA111444EAD574FF
:1020700018BF1CEA131500F0C780A4EB05044FF04D
:10208000004545EAC12145EAC32341EA505143EAEC
:10209000525304F17F74994204F500344FEAC02092
:1020A0004FEAC22208BF904200F09C804FEA1365BD
:1020B0000FF24016765D4FEA134506FB05F7C7F1B0
:1020C000807706FB07F74FEAD737A7FB036876420E
:1020D000C8F58038A7FB06CE38BFA8F1010807FB7A
:1020E00008E64FF0000EA6FB028CE6FB03CEDCF107
:1020F000000CCEF1004E38BFAEF1010EA6FB0C581D
:102100004FF000074FF00005E6FB0E87A1FB08C665
:10211000A0FB07CE16EB0E0645F10005E1FB0765B7
:1021200015F1E04E7EBFA4F580345FEA46066D41AE
:1021300016F1800745F100054FEA17274FEA0666BA
:1021400047EA0567A6F1DE46B6F1805F4FEA15253E
:102150001FD9384624F0010C05EBC471BCF1FE6FA9
:1021600001EB0C1102D8F0BCBDE8008124425CBF39
:1021700001F5801E9EEAC47F02D4F0BCBDE8008158
:10218000244238D4F0BCA1F1C041BDE8004100F0C8
:1021900003B94FEAD22242EA43524FEAD323A7FBC4
:1021A00002864FEAD02040EA415007FB03661EEA50
:1021B0000E0F4FEAD12105FB026658BFA6EB005671
:1021C000B6EB00564FEA520E4EEAC37E18EB0E0EE7
:1021D00056EB530EBDD518EB02085E417F1C55F13E
:1021E0000005B6E74FF480154FF000074FF00006EA
:1021F0004FF00008ADE7F0BC4FF0000001F1C04126
:1022000001F00041BDE8008111EA0C1F0CEA131532
:1022100000D00CE013EA0C1F00F025804FF0000006
:10222000F0BC81EA030101F00041BDE80081F0BC8F
:10223000BDE8004181EA030100F0AEB8F0BCBDE8A2
:10224000004170B500F05AF8097EFC3E00F007B876
:1022500081EA03014FF0000001F00041704781EA7C
:10226000030100F099B8F0BCBDE800414FF0000058
:1022700021497047FFFDFBF9F7F5F4F2F0EEEDEBC5
:10228000E9E8E6E4E3E1E0DEDDDBDAD8D7D5D4D374
:10229000D1D0CFCDCCCBCAC8C7C6C5C4C2C1C0BFC0
:1022A000BEBDBCBBBAB9B8B7B6B5B4B3B2B1B0AFC6
:1022B000AEADACABAAA9A8A8A7A6A5A4A3A3A2A1AA
:1022C000A09F9F9E9D9C9C9B9A9999989797969565
:1022D00095949393929191908F8F8E8E8D8C8C8B01
:1022E0008B8A898988888787868585848483838289
:1022F000828181800000FF070000F87F0EF1020E4E
:102300002EF0030E5EF8046B364205D4012A43EB2F
:10231000030515F5001F12D8012841EB010C1CF52F
:10232000001F0CD80ED14FEAD17C15F5001F0CEB25
:102330004C0C0CF1020C08BF4CEBD37C04E04FF0CA
:10234000080C01E04FEAD37C0CEB4C0526FA05F6AD
:1023500006F00706B6F1040C06D20EEB860CBDE8BB
:1023600070404CF0010C6047DFE80CF0090B0202F2
:102370004FF000414FF00000A1F5002170BD19465B
:102380001046012851EB010418BFD4F5001484BF96
:10239000002001F0004170BD0808A0F500114FEACF
:1023A0003101704743004FEAD30C4FEA3C0C4340E5
:1023B0001FBF40070CF1605113F0FE4F70471CF037
:1023C000006F03D100200CF0004170470CF0004377
:1023D00043EA507010B540EACC0000F0D2F900BFDB
:1023E000000000924FEA0001FFF7D6BF4FF0004116
:1023F0004FF00000A1F500217047000090EA010FA6
:1024000048BF81F0004100F1A082421A3CBF801A0F
:1024100089184FEAD0524FF07F4C1CEA410FA2EBD3
:10242000D15318BF9CEA026F00F03B804FF0004C84
:102430004CEA00204CEA012121FA03FC10EB0C0CC1
:102440001ED202F1FF325FEA1C2040EBC25038BFBF
:1024500070471CF07F0F4FEA400C18BFBCF17F4F54
:1024600038BF7047C3F12003994008BF20F0010036
:10247000BCF17F4F38BF7047A0F1C04000F0C7B932
:102480004FEA3C00000A40EBC25028BF1CF0FF0F8F
:102490004FEA400CE6D018BFBCF17F4F38BF704701
:1024A000EAE79CEA026F05D010EA5C0F08BF00F073
:1024B0000040704710B500F064F900BF64FBBE3EF9
:1024C000014800F0B0BA00BF0000C07F4FF47F0C9D
:1024D0001CEAD0121EBF1CEAD11392EA0C0F93EA39
:1024E0000C0F00F0858090EA010F48BF42F4807223
:1024F00040F4000C41F400002CF07F4120F07F40BC
:1025000000B58142A2EB03020FF2081CACEB504E67
:10251000C0F100009EF800E04FEA4E0E00FB0EFCFA
:1025200038BF49004FEA2C1C02F5FA020CFB0EF3EF
:102530004FEACE1E4FEA112C4FEAC1210EEB635E2B
:1025400042EB22420EFB0CFC4FEA1C5300FB031132
:102550004FEA112C4FEA01310EFB0CFC4FEADC4C28
:1025600000FB0C11C14228BF09184CEB03335DF886
:1025700004EB10EB410143EBC250B2F57C0F38BFC6
:10258000704729D512F0F00F1CBF00F1C04000F0D9
:1025900000407047008182838485868788898B8C80
:1025A0008D8E8F919293959697999A9C9D9FA0A2BC
:1025B000A3A5A7A8AAACAEB0B2B3B5B7B9BCBEC00C
:1025C000C2C5C7C9CCCED1D4D7D9DCDFE2E6E9ECAD
:1025D000F0F3F7FAFE0000004FEA400C0CF1807CAB
:1025E000BCF17E4F28BF7047B0F1C04000F00FB97A
:1025F00090EA010F0CEAD11348BF42F480726245A1
:1026000038BF634507D213F47F0F16D080EA01006C
:1026100000F00040704710B500F0B3F8097EFC3EB2
:1026200000F005B880EA010000F00040704780EA41
:10263000010000F0004000F0EAB812F47F0F04BF80
:102640000248704780EA010000F0E1B80000C07F56
:1026500010F0004148BF4042B0FA80F310FA03F294
:10266000C3F19D030BD051EAC35101EB1220530675
:1026700038BF704700F1010008BF20F0010070472B
:102680004FF47F0C1CEAD0121EBF1CEAD11392EA51
:102690000C0F93EA0C0F00F0478090EA010F48BF3F
:1026A00042F480724FF0004C4CEA00204CEA0121C9
:1026B00002EB0302A0FB0113A2F50002002918BFE0
:1026C00043F001035B0028BF4FEA330342EB224291
:1026D0005FEA132C4CEBC2502EBFBCEB436FB2F53C
:1026E0007C0F70474FEA036CBCF1004F08BF20F02D
:1026F0000100B2F57C0F38BF70470BD582F0FF02A6
:1027000012F5803FC8BF704700F1C040D8BF00F04D
:102710000040704700F5000C5FEA4C0C48BF704762
:10272000B0F1C04000F073B890EA010F0CEAD11389
:1027300048BF42F48072624538BF634504D280EAE4
:10274000010000F00040704710B500F01AF800BF1B
:102750008900013E00F007B800F009B85FEA410CBB
:102760005FEA1C6C08D080EA010000F050B85FEA14
:10277000400C5FEA1C6CF6D14FF00040A0F58000E1
:1027800070470EF1020E2EF0030E5EF8044B244249
:1027900004D44FEA4102B2F17F4F11D84FEA40030F
:1027A000B3F17F4F0CD80ED14FEAD07CB2F17F4FFE
:1027B0000CEB4C0C0CF1020C08BF4CEBD17C04E090
:1027C0004FF0080C01E04FEAD17C0CEB4C0324FAEB
:1027D00003F404F00704B4F1040C06D20EEB840CED
:1027E000BDE810404CF0010C6047DFE80CF0070832
:1027F00002024FF00040A0F5800010BD08464200E4
:1028000018BFD2F1807288BF00F0004010BDFF21D8
:1028100041EAD050C005704780F0004090EA010FB7
:102820007FF5F3AD81F0004100F08FB84FEAD05151
:10283000002988BFD1F1FF0240F2758001F17D01CE
:102840004FEA002070B5490840F0004038BF40080A
:102850000EA2430E040CD25C02FB02F304FB03F352
:10286000C3F14043A3FB0254ED0D45EA442202FBB1
:1028700002F3A0FB03546D42C4F1404438BF641E10
:10288000A2FB05350023E2FB0453EA0B42EA434274
:10289000A0FB023212F14004A2F12103E40903F08B
:1028A0007F031F2B32D904EBC15070BDFEFAF7F342
:1028B000F0ECE9E6E4E1DEDCD9D7D4D2D0CECCCA64
:1028C000C8C6C4C2C1BFBDBCBAB9B7B6B4B3B2B052
:1028D000AFAEACABAAA9A8A7A6A4A3A2A1A09F9E95
:1028E0009E9D9C9B9A999897979695949393929175
:1028F00090908F8E8E8D8C8C8B8A8A898988878721
:1029000086868584848383828281818004FB04F6A9
:10291000B6EB004603D5E64248BF641CC3E7A642B7
:1029200058BF641CBFE711F0FF0F02D100F0004058
:10293000704710B5FFF725FF7FDBFFBE90EA010F60
:1029400048BF81F000413FF560AD421A04D882F0E3
:102950000042A0EB020011444FEAD0524FF07F4CEE
:102960001CEA410FA2EBD15318BF9CEA026F4AD078
:102970004FF0004C4CEA00204CEA012121FA03FC04
:10298000B0EB0C0C0FD412F0FE0F36D05FEA4C0007
:102990001DD5001240EBC25038BF70471CF03F0FEE
:1029A00018BF70470BE0A2F101025FEA1C2040EB68
:1029B000C25038BF70471CF07F0F18BF7047C3F17B
:1029C0002003994014BF401E20F00100704780088A
:1029D0004FEA122308BF7047B0FA80FCA2EB0C024A
:1029E000CCF1280C60FA0CF093EA122F04BF00EB34
:1029F000C25070474FEAC3707047130A5FEADC1099
:102A000008BF7047F6E79CEA026F04D010EA5C0F3B
:102A100008BF0020704710B5FFF7B3FE40DFF63E59
:102A200081F0004070470CF00F03092B08BF08200D
:102A300000F051800A2B0BD0082B18BF704708BF3D
:102A40001CF0400F0AD04FF000004FF0000170471B
:102A50001CF0400F18BF4FF0004070471CF0100FE3
:102A600008D020F0704300F07F4242EAD3014FEAE1
:102A70004370704700F0604021F07F4242EA00025C
:102A800001F07F4040EA727070474FF0FF0212EA97
:102A9000D0521CBF92F0FF038B42C2BFD14200EB69
:102AA000C1507047002A0AD0002B0BD0002900F03B
:102AB0000040A4BF40F0FE4040F40000704700F02A
:102AC0000040704743024FF00B0C18BF4CF0806C75
:102AD0007FF4F6AC70471CF4801F11D01CF4E02F7B
:102AE00003D06FEACC31490070474FF04050EFF30C
:102AF000008222F0704242EA000282F300887047AE
:102B00004FF00000704701020203040506070809A0
:102B10000A0B0C0D0E0F101000000000000000004A
:102B20000102030406070809000000000102030473
:102B3000502B0008000000202C0000006C01000851
:102B40007C2B00082C000020DC0600008801000817
:102B500001000000100000000000000000127A00D8
:102B60000000000000000000000000000000803FA6
:0C2B700000000000000000000000000059
:0400000508000131BD
:00000001FF
