:020000040800F2
:1000000000C000205D360008E91A0008EB1A00085D
:10001000ED1A0008EF1A0008F11A000800000000AD
:10002000000000000000000000000000F31A0008BB
:10003000F51A000800000000F71A0008F91A000875
:10004000A5360008A5360008A5360008A536000824
:10005000A5360008A5360008A5360008A536000814
:10006000A5360008A5360008A5360008A536000804
:10007000A5360008A5360008A5360008A5360008F4
:10008000A5360008A5360008A5360008A5360008E4
:10009000A5360008A5360008A5360008A5360008D4
:1000A000A5360008A5360008A5360008A5360008C4
:1000B000A5360008A5360008A5360008A5360008B4
:1000C000A5360008A5360008A5360008A5360008A4
:1000D000A5360008A5360008A5360008A536000894
:1000E000A5360008A5360008A5360008A536000884
:1000F000A5360008A5360008A5360008A536000874
:10010000A5360008A5360008A5360008A536000863
:10011000A5360008A5360008A5360008A536000853
:10012000A5360008A5360008A5360008A536000843
:1001300000000000000000000000000000000000BF
:1001400000000000000000000000000000000000AF
:10015000000000000000000000000000000000009F
:10016000000000000000000000000000000000008F
:10017000000000000000000000000000000000007F
:10018000000000000000000000000000000000006F
:10019000000000000000000000000000000000005F
:1001A000000000000000000000000000000000004F
:1001B000000000000000000000000000000000003F
:1001C000000000000000000000000000000000002F
:1001D000000000000000000000000000000000001F
:0401E0005FF8E0F1F3
:1001E80070B5860747D0541E002A3ED00346CAB2CF
:1001F80001E0013C39D303F8012B9D07F9D1032C09
:100208002CD9CDB205EB05250F2C1A4605EB054573
:1002180034D9A4F1100C2CF00F0603F1100EB644DB
:100228004FEA1C1C156055609560D5601032724508
:10023800F8D10CF1010214F00C0F03EB021204F0D8
:100248000F0C13D0ACF1040323F00303043313445D
:1002580042F8045B9A42FBD10CF003042CB1C9B2FA
:100268001C4403F8011B9C42FBD170BD6446134635
:10027800002CF4D1F9E703461446C0E7A446E1E7A9
:10028800014B1868704700BF0000002070B50F4B85
:100298000F4DAB42A3EB050607D00024B61055F866
:1002A800043B01349847A642F9D803F0F9F9094DFF
:1002B800094B5E1BAB424FEAA60606D0002455F850
:1002C800043B01349847A642F9D870BD2837000886
:1002D80028370008283700082C37000838B50446A6
:1002E80000F0B4F821460546204601F07BFA38B9FB
:1002F800204600F033F84FF07E5101F069FA08B952
:10030800284638BDFFF7BCFF2122034602481A6081
:10031800BDE8384000F026B82437000800F0E4B9FA
:1003280038B5044600F022F821460546204601F07B
:1003380059FA20B92046002101F02CFA08B92846BC
:1003480038BDFFF79DFF2122034600211A600846A9
:1003580001F036F90546284638BD00BF20F00040B8
:10036800704700BF004870470000C07F20F000427F
:10037800B2F1FF4FF8B5044651D2002A4ED00028FA
:10038800034653DB14F0FF4F4FEAE05009D114F451
:10039800000256D15B001C02114602F10102F9D598
:1003A800401A00244FF0190E4FF0807C2146C3F309
:1003B800160242F40002C307A0F17F0558BF52009D
:1003C8006D10520001EB0C039342CFBF134603EBB1
:1003D8000C016444D31ABEF1010E4FEA43024FEAFE
:1003E8005C0CEFD1ABB1184E3068716800F02AFF91
:1003F80037680146384601F0D7F950B1306871685E
:1004080000F022FF36680146304601F0C3F9A0B17A
:100418000234601000F17C5000EBC550F8BD014675
:1004280001F01AF8214600F00FFFF8BD014600F070
:1004380009FF014601F0C4F8F8BD013424F00104B5
:10044800E7E74FF0FF31ABE7500000202DE9F84314
:1004580020F00045B5F17E5F044600F0B28000F25E
:10046800A880B5F17C5F06460DD2B5F1485F80F0F3
:10047800CE808D4900F0E8FE4FF07E5101F0A8F9DA
:10048800002840F0C2802046FFF768FF01464FF081
:100498007E5000F0D7FE4FF07C5100F0DDFF04469F
:1004A800824900F0D9FF824900F0CEFE214600F0D3
:1004B800D3FF804900F0C6FE214600F0CDFF7E49FB
:1004C80000F0C2FE214600F0C7FF7C4900F0BAFEEA
:1004D800214600F0C1FF7A4900F0B6FE214600F03F
:1004E800BBFF78498046204600F0B6FF764900F009
:1004F800A9FE214600F0B0FF744900F0A5FE214690
:1005080000F0AAFF724900F09DFE214600F0A4FF0A
:100518004FF07E5100F098FE81462046FFF726FFF7
:100528006C4B07469D425BD8014600F08DFE0346A2
:1005380049464046984601F043F80146404600F0D7
:100548008BFF27F47F6525F00F058046294628464E
:1005580000F082FF0146204600F074FE294604465A
:10056800384600F071FE0146204601F029F80146A0
:1005780000F06AFE0146584800F064FE0146404615
:1005880000F060FE29460446284600F05DFE01465C
:10059800524800F057FE0146204600F053FE01463F
:1005A8004E4800F04FFE002E09DC00F10040BDE887
:1005B800F883014600F046FE014601F001F8BDE867
:1005C800F883474900F048FF0346434920461C4644
:1005D80000F042FF0146204600F036FEBDE8F883F1
:1005E8004946404600F0ECFF394600F035FF3946F1
:1005F80000F02AFE014600F027FE3A4900F024FEEA
:100608000146374800F01EFECDE72046D7E70146F1
:1006180000F022FF0546254900F01EFF244900F09E
:1006280013FE294600F018FF224900F00BFE294668
:1006380000F012FF204900F007FE294600F00CFFE9
:100648001E4900F0FFFD294600F006FF1C4900F096
:10065800FBFD294600F000FF1A490646284600F02F
:10066800FBFE194900F0EEFD294600F0F5FE17499A
:1006780000F0EAFD294600F0EFFE154900F0E2FD22
:10068800294600F0E9FE4FF07E5100F0DDFD0146FD
:10069800304600F095FF214600F0DEFE214600F0CE
:1006A800D3FDBDE8F88300BFCAF2497108EF1138DD
:1006B800047F4F3A4611243DA80A4E3E90B0A63E0C
:1006C800ABAA2A3E2EC69D3D6133303F2D570140CF
:1006D80039D119409999793F2EBD3BB3DB0F493F7A
:1006E800DB0FC93F2EBD3B3370B521F00045B5F196
:1006F800FF4F0A4603462CD820F00046B6F1FF4FBC
:10070800844626D8B1F17E5F35D08C1704F00204F8
:1007180044EAD07416B33DB3B5F1FF4F33D0B6F108
:10072800FF4F21D0761BB6F1F45F4FEAE65028DA86
:10073800002934DA3C3032DA0020012C40D0022C77
:1007480036D02CB1254900F07FFD254900F07AFD0F
:1007580070BD1946104600F077FD70BD022C08D018
:10076800032CF5D11F4870BDBCF1000F07DB1E48F4
:1007780070BD1B4870BDBDE8704000F03DB81B4817
:1007880070BD1948D9E7B6F1FF4F04F1FF341AD00C
:10079800022C1ED8164B03EB8403D86870BD114693
:1007A800184600F00DFFFFF7D9FD00F025F8C4E763
:1007B8000A4900F049FD0146094800F043FD70BDB3
:1007C80000F1004070BD022C05D8094B53F82400F5
:1007D80070BD002070BD074870BD00BF2EBDBB3383
:1007E800DB0F4940DB0F49C0DB0FC93FDB0FC9BF37
:1007F800C0360008DB0F493F2DE9F04120F00045E5
:10080800B5F1A14F0446074608D3B5F1FF4F73D899
:10081800002840F381806748BDE8F081664B9D421F
:100828007DD8B5F1445F6CD34FF0FF3821462046A0
:1008380000F012FE0146064600F00EFE05465F492E
:1008480000F00AFE5E4900F0FFFC294600F004FEB5
:100858005C4900F0F9FC294600F0FEFD5A4900F019
:10086800F3FC294600F0F8FD584900F0EDFC294654
:1008780000F0F2FD564900F0E7FC314600F0ECFDCF
:1008880054490646284600F0E7FD534900F0DAFCD3
:10089800294600F0E1FD514900F0D4FC294600F05A
:1008A800DBFD4F4900F0CEFC294600F0D5FD4D494F
:1008B80000F0C8FC294600F0CFFD0146304600F0A4
:1008C800C3FC214600F0C8FDB8F1FF3F01463CD00B
:1008D800454D05EB8803196900F0B4FC214600F08A
:1008E800B1FC014655F8280000F0ACFC002F93DA63
:1008F80000F10040BDE8F081014600F0A5FCBDE82C
:10090800F0813A4900F0A0FC4FF07E5100F060FF02
:10091800002889D020467FE73548BDE8F081FFF7F9
:100928001DFD344B04469D4214D8A3F5D0039D42C7
:1009380032D94FF07E5100F085FC4FF00108034694
:100948004FF07E5120461C4616E0204600F07AFC07
:10095800BDE8F081284B9D4216D84FF07F5100F03A
:1009680071FC03464FF07F5120464FF002081C46A9
:1009780000F072FD4FF07E5100F066FC0146204603
:1009880000F01EFE044651E701461C4800F018FE20
:100998004FF00308044649E7014600F055FC4FF0C4
:1009A8007E5100F04FFC4FF0000803464FF08041A5
:1009B8002046C8E7DB0FC93FFFFFDF3ED769853C0C
:1009C80059DA4B3D356B883D6E2EBA3D2549123EAE
:1009D800ABAAAA3E21A215BD6BF16E3D95879D3D40
:1009E800388EE33DCDCC4C3ED8360008CAF249716A
:1009F800DB0FC9BFFFFF973FFFFF1B40000080BF11
:100A080081F0004102E000BF83F0004330B54FEAB7
:100A180041044FEA430594EA050F08BF90EA020F24
:100A28001FBF54EA000C55EA020C7FEA645C7FEAB7
:100A3800655C00F0E2804FEA5454D4EB5555B8BFDA
:100A48006D420CDD2C4480EA020281EA030382EA4B
:100A5800000083EA010180EA020281EA0303362DDD
:100A680088BF30BD11F0004F4FEA01314FF4801CB0
:100A78004CEA113102D0404261EB410113F0004FC2
:100A88004FEA03334CEA133302D0524263EB430379
:100A980094EA050F00F0A780A4F10104D5F1200E17
:100AA8000DDB02FA0EFC22FA05F2801841F1000172
:100AB80003FA0EF2801843FA05F359410EE0A5F146
:100AC80020050EF1200E012A03FA0EFC28BF4CF077
:100AD800020C43FA05F3C01851EBE37101F000452D
:100AE80007D54FF0000EDCF1000C7EEB00006EEB3A
:100AF8000101B1F5801F1BD3B1F5001F0CD34908C4
:100B08005FEA30004FEA3C0C04F101044FEA44521A
:100B180012F5800F80F09A80BCF1004F08BF5FEAA1
:100B2800500C50F1000041EB045141EA050130BD81
:100B38005FEA4C0C404141EB0101013C28BFB1F593
:100B4800801FE9D291F0000F04BF01460020B1FADE
:100B580081F308BF2033A3F10B03B3F120020CDAB1
:100B68000C3208DD02F1140CC2F10C0201FA0CF08F
:100B780021FA02F10CE002F11402D8BFC2F1200CF4
:100B880001FA02F120FA0CFCDCBF41EA0C019040AA
:100B9800E41AA2BF01EB0451294330BD6FEA0404F3
:100BA8001F3C1CDA0C340EDC04F11404C4F12002DE
:100BB80020FA04F001FA02F340EA030021FA04F3F0
:100BC80045EA030130BDC4F10C04C4F1200220FA47
:100BD80002F001FA04F340EA0300294630BD21FA85
:100BE80004F0294630BD94F0000F83F4801306BF4B
:100BF80081F480110134013D4EE77FEA645C18BF3F
:100C08007FEA655C29D094EA050F08BF90EA020FD5
:100C180005D054EA000C04BF1946104630BD91EACD
:100C2800030F1EBF0021002030BD5FEA545C05D1D0
:100C38004000494128BF41F0004130BD14F580040F
:100C48003CBF01F5801130BD01F0004545F0FE4183
:100C580041F470014FF0000030BD7FEA645C1ABFB8
:100C6800194610467FEA655C1CBF0B46024650EAEF
:100C7800013406BF52EA033591EA030F41F400211B
:100C880030BD00BF90F0000F04BF0021704730B5A1
:100C98004FF4806404F132044FF000054FF0000176
:100CA80050E700BF90F0000F04BF0021704730B537
:100CB8004FF4806404F1320410F0004548BF40420C
:100CC8004FF000013EE700BF42004FEAE2014FEA61
:100CD80031014FEA02701FBF12F07F4393F07F4F3C
:100CE80081F06051704732F07F4208BF704793F03F
:100CF8007F4F04BF41F40021704730B54FF4607452
:100D080001F0004521F000411CE700BF50EA010254
:100D180008BF704730B54FF000050AE050EA0102FD
:100D280008BF704730B511F0004502D5404261EB6D
:100D380041014FF4806404F132045FEA915C3FF4AE
:100D4800D8AE4FF003025FEADC0C18BF03325FEA4B
:100D5800DC0C18BF033202EBDC02C2F1200300FAFC
:100D680003FC20FA02F001FA03FE40EA0E0021FA21
:100D780002F11444BDE600BF70B54FF0FF0C4CF40F
:100D8800E06C1CEA11541DBF1CEA135594EA0C0FC1
:100D980095EA0C0F00F0DEF82C4481EA030621EAFC
:100DA8004C5123EA4C5350EA013518BF52EA033537
:100DB80041F4801143F4801338D0A0FB02CE4FF0E9
:100DC8000005E1FB02E506F00042E0FB03E54FF019
:100DD8000006E1FB03569CF0000F18BF4EF0010E11
:100DE800A4F1FF04B6F5007F64F5407404D25FEA0D
:100DF8004E0E6D4146EB060642EAC62141EA5551C0
:100E08004FEAC52040EA5E504FEACE2EB4F1FD0C01
:100E180088BFBCF5E06F1ED8BEF1004F08BF5FEA7F
:100E2800500E50F1000041EB045170BD06F0004631
:100E380046EA010140EA020081EA0301B4EB5C04DE
:100E4800C2BFD4EB0C0541EA045170BD41F48011D6
:100E58004FF0000E013C00F3AB8014F1360FDEBFFB
:100E6800002001F0004170BDC4F10004203C35DAD7
:100E78000C341BDC04F11404C4F1200500FA05F35A
:100E880020FA04F001FA05F240EA020001F00042FB
:100E980021F0004110EBD37021FA04F642EB060171
:100EA8005EEA430E08BF20EAD37070BDC4F10C049B
:100EB800C4F1200500FA04F320FA05F001FA04F25F
:100EC80040EA020001F0004110EBD37041F100014B
:100ED8005EEA430E08BF20EAD37070BDC4F1200556
:100EE80000FA05F24EEA020E20FA04F301FA05F2BE
:100EF80043EA020321FA04F001F0004121FA04F266
:100F080020EA020000EBD3705EEA430E08BF20EA35
:100F1800D37070BD94F0000F0FD101F0004640006F
:100F280041EB010111F4801F08BF013CF7D041EAF1
:100F3800060195F0000F18BF704703F000465200F5
:100F480043EB030313F4801F08BF013DF7D043EAC6
:100F58000603704794EA0C0F0CEA135518BF95EA7C
:100F68000C0F0CD050EA410618BF52EA4306D1D103
:100F780081EA030101F000414FF0000070BD50EA22
:100F8800410606BF1046194652EA430619D094EAAC
:100F98000C0F02D150EA013613D195EA0C0F05D196
:100FA80052EA03361CBF104619460AD181EA0301EA
:100FB80001F0004141F0FE4141F470014FF00000A2
:100FC80070BD41F0FE4141F4780170BD70B54FF03D
:100FD800FF0C4CF4E06C1CEA11541DBF1CEA1355BD
:100FE80094EA0C0F95EA0C0F00F0A7F8A4EB05049F
:100FF80081EA030E52EA03354FEA013100F0888096
:101008004FEA03334FF0805545EA131343EA12635E
:101018004FEA022245EA111545EA10654FEA002613
:101028000EF000419D4208BF964244F1FD0404F5CC
:10103800407402D25B084FEA3202B61A65EB030528
:101048005B084FEA32024FF480104FF4002CB6EBE5
:10105800020E75EB030E22BFB61A754640EA0C0065
:101068005B084FEA3202B6EB020E75EB030E22BFA5
:10107800B61A754640EA5C005B084FEA3202B6EBE6
:10108800020E75EB030E22BFB61A754640EA9C00A5
:101098005B084FEA3202B6EB020E75EB030E22BF75
:1010A800B61A754640EADC0055EA060E18D04FEA33
:1010B800051545EA16754FEA06164FEAC30343EAD3
:1010C80052734FEAC2025FEA1C1CC0D111F4801FA0
:1010D8000BD141EA00014FF000004FF0004CB6E799
:1010E80011F4801F04BF01430020B4F1FD0C88BF38
:1010F800BCF5E06F3FF6AFAEB5EB030C04BFB6EB43
:10110800020C5FEA500C50F1000041EB045170BD35
:101118000EF0004E4EEA113114EB5C04C2BFD4EB62
:101128000C0541EA045170BD41F480114FF0000EE6
:10113800013C90E645EA060E8DE60CEA135594EA62
:101148000C0F08BF95EA0C0F3FF43BAF94EA0C0F65
:101158000AD150EA01347FF434AF95EA0C0F7FF4DA
:1011680025AF104619462CE795EA0C0F06D152EA2E
:1011780003353FF4FDAE1046194622E750EA410612
:1011880018BF52EA43067FF4C5AE50EA41047FF423
:101198000DAF52EA43057FF4EBAE12E74FEA410286
:1011A800B2F1E04324BFB3F5001CDCF1FE5C0DD9BD
:1011B80001F0004C4FEAC0024CEA5070B2F1004F07
:1011C80040EB830008BF20F00100704711F0804F0A
:1011D80021D113F13872BCBF01F00040704741F4CF
:1011E80080114FEA5252C2F11802C2F1200C10FAD3
:1011F8000CF320FA02F018BF40F001004FEAC123B7
:101208004FEAD32303FA0CFC40EA0C0023FA02F35A
:101218004FEA4303CCE77FEA625307D150EA013330
:101228001EBF4FF0FE4040F44000704701F0004000
:1012380040F0FE4040F40000704700BF80F00040DE
:1012480002E000BF81F0004142001FBF5FEA410396
:1012580092EA030F7FEA226C7FEA236C6AD04FEA96
:101268001262D2EB1363C1BFD218414048404140DB
:10127800B8BF5B42192B88BF704710F0004F40F48D
:10128800000020F07F4018BF404211F0004F41F4A9
:10129800000121F07F4118BF494292EA030F3FD075
:1012A800A2F1010241FA03FC10EB0C00C3F1200388
:1012B80001FA03F100F0004302D5494260EB400017
:1012C800B0F5000F13D3B0F1807F06D340084FEA82
:1012D800310102F10102FE2A51D2B1F1004F40EB77
:1012E800C25008BF20F0010040EA030070474900DF
:1012F80040EB0000013A28BFB0F5000FEDD2B0FA7C
:1013080080FCACF1080CB2EB0C0200FA0CF0AABF9E
:1013180000EBC25052421843BCBFD040184370473C
:1013280092F0000F81F4000106BF80F40000013242
:10133800013BB5E74FEA41037FEA226C18BF7FEA19
:10134800236C21D092EA030F04D092F0000F08BF5B
:101358000846704790EA010F1CBF0020704712F042
:101368007F4F04D1400028BF40F00040704712F181
:1013780000723CBF00F50000704700F0004343F0E6
:10138800FE4040F4000070477FEA226216BF08461C
:101398007FEA23630146420206BF5FEA412390EADF
:1013A800010F40F4800070474FF0000304E000BFD5
:1013B80010F0004348BF40425FEA000C08BF704786
:1013C80043F0964301464FF000001CE050EA01024A
:1013D80008BF70474FF000030AE000BF50EA01025F
:1013E80008BF704711F0004302D5404261EB41014C
:1013F8005FEA010C02BF84460146002043F0B64371
:1014080008BFA3F18053A3F50003BCFA8CF2083A95
:10141800A3EBC25310DB01FA02FC634400FA02FC9E
:10142800C2F12002BCF1004F20FA02F243EB0200A5
:1014380008BF20F00100704702F1200201FA02FC07
:10144800C2F1200250EA4C0021FA02F243EB0200FA
:1014580008BF20EADC7070474FF0FF0C1CEAD0523E
:101468001EBF1CEAD15392EA0C0F93EA0C0F6FD0FF
:101478001A4480EA010C400218BF5FEA41211ED0DD
:101488004FF0006343EA501043EA5111A0FB0131C9
:101498000CF00040B1F5000F3EBF490041EAD3719E
:1014A8005B0040EA010062F17F02FD2A1DD8B3F11A
:1014B800004F40EBC25008BF20F00100704790F089
:1014C800000F0CF0004C08BF49024CEA502040EADB
:1014D80051207F3AC2BFD2F1FF0340EAC2507047A1
:1014E80040F400004FF00003013A5DDC12F1190FDF
:1014F800DCBF00F000407047C2F10002410021FA51
:1015080002F1C2F1200200FA02FC5FEA310040F168
:10151800000053EA4C0308BF20EADC70704792F0E1
:10152800000F00F0004C02BF400010F4000F013A19
:10153800F9D040EA0C0093F0000F01F0004C02BF14
:10154800490011F4000F013BF9D041EA0C018FE783
:101558000CEAD15392EA0C0F18BF93EA0C0F0AD089
:1015680030F0004C18BF31F0004CD8D180EA0100AF
:1015780000F00040704790F0000F17BF90F0004F48
:10158800084691F0000F91F0004F14D092EA0C0F2A
:1015980001D142020FD193EA0C0F03D14B0218BFBD
:1015A800084608D180EA010000F0004040F0FE4003
:1015B80040F40000704740F0FE4040F4400070479F
:1015C8004FF0FF0C1CEAD0521EBF1CEAD15392EA1E
:1015D8000C0F93EA0C0F69D0A2EB030280EA010C0E
:1015E80049024FEA402037D04FF0805343EA1111A7
:1015F80043EA10130CF000408B4238BF5B0042F105
:101608007D024FF4000C8B4224BF5B1A40EA0C00A9
:10161800B3EB510F24BFA3EB510340EA5C00B3EBDB
:10162800910F24BFA3EB910340EA9C00B3EBD10FC9
:1016380024BFA3EBD10340EADC001B0118BF5FEA1B
:101648001C1CE0D1FD2A3FF650AF8B4240EBC25044
:1016580008BF20F0010070470CF0004C4CEA502005
:101668007F32C2BFD2F1FF0340EAC250704740F454
:1016780000004FF00003013A37E792F0000F00F046
:10168800004C02BF400010F4000F013AF9D040EAC4
:101698000C0093F0000F01F0004C02BF490011F458
:1016A800000F013BF9D041EA0C0195E70CEAD15350
:1016B80092EA0C0F08D142027FF47DAF93EA0C0F37
:1016C8007FF470AF084676E793EA0C0F04D14B021B
:1016D8003FF44CAF08466EE730F0004C18BF31F0CD
:1016E800004CCAD130F000427FF45CAF31F00043C7
:1016F8007FF43CAF5FE700BF4FF0FF3C06E000BF60
:101708004FF0010C02E000BF4FF0010C4DF804CD82
:101718004FEA40024FEA41037FEA226C18BF7FEA92
:10172800236C11D001B052EA530C18BF90EA010F94
:1017380058BFB2EB030088BFC81738BF6FEAE17023
:1017480018BF40F0010070477FEA226C02D15FEABF
:10175800402C05D17FEA236CE4D15FEA412CE1D02B
:101768005DF8040B704700BF844608466146FFE7F2
:101778000FB5FFF7C9FF002848BF10F1000F0FBDD4
:101788004DF808EDFFF7F4FF0CBF012000205DF8CD
:1017980008FB00BF4DF808EDFFF7EAFF34BF012052
:1017A80000205DF808FB00BF4DF808EDFFF7E0FFEB
:1017B80094BF012000205DF808FB00BF4DF808ED3C
:1017C800FFF7D2FF94BF012000205DF808FB00BF9F
:1017D8004DF808EDFFF7C8FF34BF012000205DF881
:1017E80008FB00BF4FEA40024FEA41037FEA226C40
:1017F80002D15FEA402C08D17FEA236C02D15FEA6C
:10180800412C02D14FF0000070474FF001007047A3
:1018180010B5054C237833B9044B13B10448AFF322
:1018280000800123237010BDA001002000000000EB
:10183800A836000808B5034B1BB103490348AFF3AA
:10184800008008BD00000000A4010020A8360008A0
:1018580072B6FEE700B591B02822002106A8FEF76F
:10186800BFFC002301930293039304930593012281
:1018780006924FF4803307930A9202220D920E9338
:101888004FF4E0130F9306A800F094FF80B90F23DC
:10189800019302210291002303934FF48062049282
:1018A800059301A801F0B8F920B911B05DF804FB5F
:1018B800FFF7CEFFFFF7CCFF2DE9F04F85B000F022
:1018C8002BFFFFF7C7FF00F099F800F0B9F801F017
:1018D800F7FB384A4FF08041374801F037FC00F0F9
:1018E80039FF054600F036FF0446401BFFF75CFD54
:1018F8003249FFF765FE8346DFF8C490DFF8C480FD
:10190800314F324E324DB5F900300193DFF8C4A0A3
:10191800BAF900300093B9F90030B8F90020B7F9E6
:101928000010B6F9000001F0FDFBB6F90000FFF762
:101938003FFD0646284B1860B7F90000FFF738FD51
:101948000746264B1860B8F90000FFF731FD8046BE
:10195800234B1860B9F90000FFF72AFD8146214B97
:101968001860BAF90000FFF723FD82461E4B186085
:10197800B5F90000FFF71CFD1C4B18600E4DCDF8A3
:101988000CB00290CDF804A0CDF8009043463A463A
:101998003146284601F0ECFB6A6A154B1A60AA6AC0
:1019A800144B1A60EA6A144B1A600A2000F0D8FE39
:1019B800254697E70AD7A33BBC01002000007A44DC
:1019C800080200200A0200200C0200200E0200205B
:1019D800040200200602002000020020FC01002072
:1019E800F8010020F4010020F0010020EC010020A3
:1019F80018020020140200201002002084B00F4BAF
:101A08009A6942F020029A619A6902F020020192D2
:101A1800019A9A6942F004029A619A6902F00402F2
:101A28000292029A9A6942F008029A619B6903F04D
:101A380008030393039B04B0704700BF00100240E3
:101A480008B50B480B4B03600B4B436000238360C6
:101A5800C3604FF48042026143618361C3610362E2
:101A680000F0F6FA00B908BDFFF7F2FEFBE700BF89
:101A78001C02002000540040801A060010B586B0F1
:101A8800002302930393049305930268114B9A422F
:101A980001D006B010BD104CA36943F00803A36140
:101AA800A36903F008030093009BC0230293122349
:101AB80003930323059302A9084801F079F9E36920
:101AC80043F40013E361E36903F400130193019BFA
:101AD800DFE700BF0054004000100240000C014046
:101AE800FEE7FEE7FEE7FEE7FEE770477047704750
:101AF80008B500F023FE08BD82B00E4B9A6942F08B
:101B080001029A619A6902F001020092009ADA6968
:101B180042F08052DA61DB6903F080530193019B44
:101B2800054A536823F0E06343F00073536002B042
:101B3800704700BF001002400000014003685A6966
:101B480012F4806F01D1002070476FF480625A61EF
:101B580000230363202280F83D2080F83E30026C89
:101B680042F00402026480F83C30012070472DE9FD
:101B7800F04106460C46174698463BE000F0EAFD61
:101B8800069BC01A404502D8B8F1000F32D1012D8A
:101B980018D033689B6924EA03039BB2B3FA83F332
:101BA8005B099F4226D100233363202286F83D201B
:101BB80086F83E30326C42F02002326486F83C30BF
:101BC800012027E033685B6924EA03039BB2B3FA78
:101BD80083F35B09E5E733685B6924EA030C1FFAC2
:101BE8008CFCBCFA8CFC4FEA5C1C674511D1B8F13F
:101BF800FF3FC3D1C4F30745012DECD033689B697F
:101C080024EA030C1FFA8CFCBCFA8CFC4FEA5C1C1F
:101C1800EBE70020BDE8F0812DE9F84305460E46C4
:101C28009046994653E01A6842F400721A602B688D
:101C38006FF480625A6100232B63202285F83D20CF
:101C480085F83E302A6C42F004022A6485F83C305C
:101C580001204AE000F07EFDA0EB0900404502D8D3
:101C6800B8F1000F33D1012F17D02B689B6926EAF2
:101C780003039BB2003B18BF012343B300232B632C
:101C8800202285F83D2085F83E302A6C42F020025B
:101C98002A6485F83C30012027E02B685B6926EA36
:101CA80003039BB2003B18BF0123E6E72B689C693E
:101CB80026EA0404A4B2003C18BF0124A4B12B688E
:101CC8005A6912F4806FAED1B8F1FF3FC2D1C6F3A2
:101CD8000747012FEAD12B685C6926EA0404A4B2FD
:101CE800003C18BF0124E9E70020BDE8F88370B57F
:101CF80004460D46164623685B6913F0800F21D110
:101D08002046FFF71BFFF8B9B5F1FF3FF3D000F00D
:101D180021FD801BA84201D8002DECD123685B6906
:101D280013F0800FE7D100232363202284F83D209D
:101D380084F83E30226C42F02002226484F83C3061
:101D4800012000E0002070BD0120FCE72DE9F043F0
:101D580085B004460D4691461F46DDF830800D9E3D
:101D68000368196841F4807119600096434600229F
:101D78004FF00111FFF7FBFE60B9236805F0FE057F
:101D88001D613346424626492046FFF745FF68B1A4
:101D9800012008E023681B6813F4807F02D04FF409
:101DA80000732364032005B0BDE8F0830023039388
:101DB80023685A6903929B690393039B3246414601
:101DC8002046FFF794FF30B9012F0FD123685FFA3F
:101DD80089F61E61E7E7236C042B01D00120E2E7B6
:101DE8002268136843F400731360F7E723684FEA27
:101DF80019221A61324641462046FFF778FF20B97A
:101E080023685FFA89F61E61CDE7236C042B01D0A5
:101E18000120C8E72268136843F400731360F7E7EA
:101E2800020001002DE9F04784B004460D4616462D
:101E380099460C9FDDF834800268136843F4806388
:101E480013600368196841F480711960CDF8008047
:101E58003B4600224FF00111FFF789FE70B95FFA87
:101E680085FA236805F0FE051D6143463A46414957
:101E78002046FFF7D1FE68B1012008E023681B68FF
:101E880013F4807F02D04FF400732364032004B05E
:101E9800BDE8F0870023039323685A6903929B697E
:101EA8000393039B424639462046FFF720FF80B93B
:101EB800B9F1010F18D12368F6B21E6142463946BE
:101EC8002046FFF714FF68B3236C042B24D00120AD
:101ED800DDE7236C042B01D00120D8E722681368C2
:101EE80043F400731360F7E72368320A1A61424625
:101EF80039462046FFF7FBFE18B92368F6B21E6183
:101F0800DCE7236C042B01D00120C0E722681368AA
:101F180043F400731360F7E72268136843F400730F
:101F28001360D4E72268136843F480731360CDF814
:101F380000803B4600224FF001112046FFF717FEB4
:101F480068B922684AF00103136143463A460949D1
:101F58002046FFF761FE002899D0012097E7236803
:101F68001B6813F4807F02D04FF4007323640320AE
:101F78008DE700BF0200010070B504460D46164605
:101F880023685B6913F0040F21D12046FFF7D6FDC3
:101F9800F8B9B5F1FF3FF3D000F0DCFB801BA84295
:101FA80001D8002DECD123685B6913F0040FE7D149
:101FB80000232363202284F83D2084F83E30226CDD
:101FC80042F02002226484F83C30012000E0002026
:101FD80070BD0120FCE770B504460D46164614E0B6
:101FE8006FF010025A6100232363202284F83D20F9
:101FF80084F83E30226C226484F83C30012025E0CD
:1020080023685B6913F0400F10D02368586910F0FB
:10201800400F1AD1586910F0100FE1D100F09AFB67
:10202800801BA842ECD8002DEFD1E9E700232363F9
:10203800202284F83D2084F83E30226C42F02002B1
:10204800226484F83C30012000E0002070BD0000CC
:10205800002800F0CC8070B5044690F83D30002B85
:1020680077D0242384F83D302268136823F00103D5
:1020780013602268136843F40043136022681368EE
:1020880023F40043136000F083FE62685A4B9A42BF
:1020980064D85A4B98428CBF00230123002B40F090
:1020A800A8805749A1FB00318B0C25686A6822F08B
:1020B8003F0242EA91426A6021680A6A22F03F02BE
:1020C80066684D4DAE424FD8013313430B62216809
:1020D800CA6922F44F4222F0FF026568464B9D42CE
:1020E8004CD8431E6D00B3FBF5F3013340F6FC708A
:1020F800034278D0C3F30B031A43CA6121680B6803
:1021080023F0C003E269206A024313430B6021688D
:102118008B6823F4034323F0FF032269E06802433A
:1021280013438B602168CB6823F0FF036269A069C1
:1021380002431343CB602268136843F00103136022
:1021480000202064202384F83D30206384F83E007A
:1021580070BD80F83C30FFF791FC82E7294B98422C
:102168008CBF0023012399E74FF4967505FB03F311
:10217800254DA5FB03539B090133A6E7A668BEB905
:10218800431E05EB450CB3FBFCF30133C3F30B0310
:10219800B3FA83F35B0943BBC6B9431E05EB450598
:1021A800B3FBF5F30133C3F30B0343F40043A3E795
:1021B800431E05EB850C0CEB8C0CB3FBFCF30133D5
:1021C800C3F30B03B3FA83F35B09E4E7431E05EBA0
:1021D800850505EB8505B3FBF5F30133C3F30B0365
:1021E80043F4404388E7042386E7012384E701207A
:1021F80070470120ACE700BFA08601007F841E0065
:1022080083DE1B43FF083D00D34D62102DE9F043E8
:1022180083B004460F46904699460C9E00F09AFA01
:10222800054694F83D00C0B2202803D0022003B030
:10223800BDE8F0830095192301224B492046FFF79A
:1022480096FC002840F0898094F83C30012B00F07F
:102258008680012384F83C3023681A6812F0010F45
:1022680003D11A6842F001021A602268136823F445
:1022780000631360212384F83D30402384F83E3006
:10228800002323640A9B6362BDF82C306385638D49
:102298002385364BE362019500964B464246394604
:1022A8002046FFF753FD00285BD1238D002B35D046
:1022B8002A4631462046FFF71AFD20BB626A23688A
:1022C80012781A61626A531C6362218D013989B2DE
:1022D8002185638D9BB2013B9BB263852368586956
:1022E80010F0040FE1D00029DFD052781A61636A38
:1022F80001336362238D013B2385638D9BB2013BD0
:102308009BB26385D1E7236C042B01D001208EE7B3
:102318002268136843F400731360F7E72A463146CE
:102328002046FFF729FE50B1236C042B01D0012071
:102338007DE72268136843F400731360F7E72268A7
:10234800136843F400731360202384F83D3000239E
:1023580084F83E3084F83C3069E7022067E70220C1
:1023680065E7012063E700BF020010000000FFFFDF
:102378002DE9F04389B004460F4690469946129ECF
:102388000023079300F0E6F9054694F83D00C0B233
:10239800202804D00227384609B0BDE8F08300950C
:1023A8001923012281492046FFF7E1FB002840F06C
:1023B8007C8194F83C30012B00F07981012384F86A
:1023C8003C3023681A6812F0010F03D11A6842F0F2
:1023D80001021A602268136823F400631360222341
:1023E80084F83D30402384F83E3000232364109B5A
:1023F8006362BDF844306385638D23856C4BE3626B
:10240800019500964B46424639462046FFF70AFD9D
:102418000746002840F04D81238D5BB9039323685C
:102428005A6903929A690392039A1A6842F40072ED
:102438001A60F2E0012B0FD0022B21D0226813681A
:1024480043F4806313600023069323685A69069255
:102458009B690693069BE0E02268136823F4806377
:10246800136072B60023049323685A6904929A6928
:102478000492049A1A6842F400721A6062B6CCE0B8
:102488002268136843F40063136072B6002305934F
:1024980023685A6905929A690592059A1A6822F47E
:1024A80080621A6062B6B8E02A4631462046FFF7D5
:1024B80092FD002840F0FF8023681A69636A1A7049
:1024C800636A01336362238D013B2385638D9BB26D
:1024D800013B9BB26385A0E0009533460022354955
:1024E8002046FFF744FB002840F0E9802268136883
:1024F80023F48063136072B623681A69636A1A70DA
:10250800636A01336362238D013B2385638D9BB22C
:10251800013B9BB26385284B1B68DB08274AA2FB5B
:1025280003231B0A03EB8303C3EBC3030793079B34
:10253800013B0793079B002B28D023685A6912F0A8
:10254800040FF4D01A6842F400721A6023681A69FA
:10255800636A1A70636A01336362238D013B2385C2
:10256800638D9BB2013B9BB2638562B623681A698F
:10257800636A1A70636A01336362238D013B2385A2
:10258800638D9BB2013B9BB2638546E023632022A7
:1025980084F83D2084F83E30226C42F02002226408
:1025A80062B684F83C300127F5E600BF020010004F
:1025B8000000FFFF040001006000002089B5F81446
:1025C8002A4631462046FFF706FD002879D12368C0
:1025D8001A69636A1A70636A01336362228D013A69
:1025E80092B22285638D9BB2013B9BB263852368BF
:1025F800596911F0040F10D0032A48D023681A69CA
:10260800636A1A70636A01336362238D013B238511
:10261800638D9BB2013B9BB26385238D002B3BD01E
:10262800032BCDD8012B3FF43FAF022B7FF454AFDF
:1026380000953346002224492046FFF798FA0028DF
:102648003BD172B62268136843F4007313602368A1
:102658001A69636A1A70636A01336362238D013BE6
:102668002385638D9BB2013B9BB2638562B6236869
:102678001A69636A1A70636A01336362238D013BC6
:102688002385638D9BB2013B9BB26385C5E71A68BE
:1026980022F480621A60B1E7202384F83D300023D9
:1026A80084F83E3084F83C3075E6022773E602274A
:1026B80071E601276FE601276DE601276BE6012722
:1026C80069E6012767E600BF0400010010B504466B
:1026D8000E4B1A784FF47A73B3FBF2F30C4A106876
:1026E800B0FBF3F000F0D6FC68B90F2C01D901203B
:1026F8000AE0002221464FF0FF3000F0BBFC054BFA
:102708001C60002000E0012010BD00BF5800002020
:10271800600000205C00002008B5074A136843F0F9
:1027280010031360032000F093FC0F20FFF7CEFF87
:10273800FFF7E2F9002008BD00200240034A1168B3
:10274800034B1B780B441360704700BF70020020D6
:1027580058000020014B1868704700BF7002002025
:1027680038B50446FFF7F6FF0546B4F1FF3F02D03F
:10277800044B1B781C44FFF7EDFF401BA042FAD323
:1027880038BD00BF5800002082B0084B1B68084ABB
:10279800A2FB03235B0A00FB03F3019300BF019B29
:1027A8005A1E0192002BF9D102B070476000002038
:1027B800D34D6210002800F0F18170B582B0044654
:1027C800036813F0010F2CD0994B5B6803F00C03DE
:1027D800042B1DD0964B5B6803F00C03082B12D01A
:1027E8006368B3F5803F41D0002B55D103F1804396
:1027F80003F504331A6822F480321A601A6822F446
:1028080080221A6037E08A4B5B6813F4803FE7D078
:10281800874B1B6813F4003F03D06368002B00F05C
:10282800BF81236813F0020F75D0814B5B6813F0EA
:102838000C0F5FD07E4B5B6803F00C03082B54D061
:102848002369002B00F08A807A4B01221A60FFF777
:1028580081FF0546764B1B6813F0020F75D1FFF711
:1028680079FF401B0228F5D903209EE1704A1368BE
:1028780043F480331360636843B3FFF76BFF054687
:102888006B4B1B6813F4003FCBD1FFF763FF401B72
:102898006428F5D9032088E1B3F5A02F09D0644B4B
:1028A8001A6822F480321A601A6822F480221A60A8
:1028B800E1E703F18043A3F53C331A6842F4802230
:1028C8001A601A6842F480321A60D4E7FFF742FFB0
:1028D8000546574B1B6813F4003FA2D0FFF73AFF99
:1028E800401B6428F5D903205FE1514B5B6813F462
:1028F800803FA5D14E4B1B6813F0020F03D023690C
:10290800012B40F04F814A4A136823F0F8036169AC
:1029180043EAC1031360236813F0080F33D0A36997
:10292800002B5CD0434B0122C3F88024FFF712FF31
:1029380005463F4B5B6A13F0020F21D1FFF70AFFF0
:10294800401B0228F5D903202FE1394A136823F0E8
:10295800F803616943EAC1031360DCE7354B0022E1
:102968001A60FFF7F7FE0546314B1B6813F0020F9C
:10297800D1D0FFF7EFFE401B0228F5D9032014E160
:102988000120FFF701FF236813F0040F00F0968081
:10299800274BDB6913F0805F34D1254BDA6942F0AD
:1029A8008052DA61DB6903F080530193019B0125B2
:1029B800214B1B6813F4807F26D0E368012B3DD0A0
:1029C800002B53D103F1804303F504331A6A22F034
:1029D80001021A621A6A22F004021A6233E0154BE5
:1029E8000022C3F88024FFF7B5FE0546104B5B6A4A
:1029F80013F0020FC7D0FFF7ADFE401B0228F5D930
:102A08000320D2E00025D3E70B4A136843F4807310
:102A18001360FFF79FFE0646074B1B6813F4807F81
:102A2800CBD1FFF797FE801B6428F5D90320BCE0C3
:102A38000010024000004242007000405F4A136AE2
:102A480043F001031362E36833B3FFF783FE0646DE
:102A58005A4B1B6A13F0020F2FD1FFF77BFE801B26
:102A680041F288339842F3D903209EE0052B09D020
:102A7800524B1A6A22F001021A621A6A22F0040200
:102A88001A62E0E74D4B1A6A42F004021A621A6AA7
:102A980042F001021A62D6E7FFF75CFE0646474B92
:102AA8001B6A13F0020F08D0FFF754FE801B41F297
:102AB80088339842F3D9032077E0E5B9E369002B1E
:102AC80072D03E4A526802F00C02082A56D0022BF5
:102AD80017D03B4B00221A66FFF73CFE0446374BE3
:102AE8001B6813F0007F47D0FFF734FE001B022855
:102AF800F5D9032059E0314AD36923F08053D361D3
:102B0800DCE72F4B00221A66FFF724FE05462B4B05
:102B18001B6813F0007F06D0FFF71CFE401B02283D
:102B2800F5D9032041E0236AB3F5803F1AD0234941
:102B38004B6823F47413226A606A024313434B60A0
:102B48001F4B01221A66FFF705FE04461B4B1B6844
:102B580013F0007F0ED1FFF7FDFD001B0228F5D909
:102B6800032022E0154A536823F40033A1680B437D
:102B78005360DCE7002018E0002016E0012B16D097
:102B88000E4B5B6803F48031226A914211D103F441
:102B98007013626A93420ED1002006E0012070474C
:102BA800012002E0012000E0002002B070BD0120F9
:102BB800FBE70120F9E70120F7E700BF001002401A
:102BC800000042420F4B5B6803F00C02082A01D058
:102BD8000D487047C3F383420C49885C13F4803F67
:102BE8000BD0084B5B68C3F34043094AD35C064AE1
:102BF80002FB00F0B0FBF3F07047064B03FB00F05C
:102C0800704700BF0010024000127A00FC3600082E
:102C1800F836000800093D00002800F0A08070B5D3
:102C28000D460446524B1B6803F007038B420BD238
:102C38004F4A136823F007030B431360136803F02C
:102C480007038B4240F08D80236813F0020F17D0E2
:102C580013F0040F04D0474A536843F4E063536009
:102C6800236813F0080F04D0424A536843F46053B2
:102C78005360404A536823F0F003A1680B43536044
:102C8800236813F0010F31D06368012B20D0022B89
:102C980025D0384A126812F0020F64D035494A68C4
:102CA80022F0030213434B60FFF754FD0646314BF5
:102CB8005B6803F00C036268B3EB820F16D0FFF772
:102CC80049FD801B41F288339842F0D9032045E042
:102CD800284A126812F4003FE0D101203EE0254A5C
:102CE800126812F0007FD9D1012037E0204B1B6811
:102CF80003F00703AB420AD91D4A136823F0070300
:102D08002B431360136803F00703AB422DD12368EC
:102D180013F0040F06D0174A536823F4E063E16800
:102D28000B435360236813F0080F07D0114A536808
:102D380023F46053216943EAC1035360FFF742FF5C
:102D48000C4B5B68C3F303130B4AD35CD8400B4BA3
:102D580018600B4B1868FFF7B9FC002070BD012004
:102D680070470120FAE70120F8E70120F6E700BFE5
:102D780000200240001002401437000860000020C4
:102D88005C000020014B1868704700BF60000020FD
:102D980008B5FFF7F7FF044B5B68C3F30223034A48
:102DA800D35CD84008BD00BF001002400C370008B3
:102DB80070B582B00024A446ACE0854DAB4210D07B
:102DC80007D9844DAB420CD005F58035AB4208D00D
:102DD80013E0A5F58015AB4203D005F57025AB428D
:102DE80007D18B68002B5FD0012B58D04261082493
:102DF80003E0A5F58015AB42F3D0BEF1FF0F55D81F
:102E080006464FEA8C0233680F25954023EA0503EE
:102E180004FA02F2134333604B6813F0805F77D0F3
:102E28006D4B9A6942F001029A619B6903F00103B4
:102E38000193019B4FEA9C02951C684B53F825604F
:102E48000CF00305AD000F23AB4026EA0306644BE4
:102E5800984232D003F58063984200F0978003F5DA
:102E68008063984200F0948003F58063984200F0F4
:102E7800918003F58063984200F08E8003F58063AB
:102E8800984218D0062319E0CC68B6E7CC68043419
:102E9800B3E7CC680834B0E7CC680C34ADE702611E
:102EA8000824AAE70024A8E70424A6E7061DACF135
:102EB80008029200A7E7052300E00023AB40334354
:102EC8000232464D45F822304B6813F4801F65D016
:102ED800444A936843EA0E0393604B6813F4001F57
:102EE80062D0404AD36843EA0E03D3604B6813F4B8
:102EF800003F5FD03B4A536843EA0E0353604B6878
:102F080013F4803F5CD0374A136843EA0E0313601A
:102F18000CF1010C0B6833FA0CF257D0012202FABB
:102F28000CF203EA020E32EA0303F1D14B68122BCA
:102F38003FF643AF122B3FF660AF01A555F823F0DB
:102F4800EB2D0008912E00089B2E0008AD2E0008DE
:102F5800032E0008032E0008032E0008032E000885
:102F6800032E0008032E0008032E0008032E000875
:102F7800032E0008032E0008032E0008032E000865
:102F8800032E0008952E0008A12E0008012395E7BE
:102F9800022393E7032391E704238FE7114A9368F9
:102FA80023EA0E03936098E70E4AD36823EA0E03D8
:102FB800D3609BE70B4A536823EA0E0353609EE7EE
:102FC800084A136823EA0E031360A1E702B070BD34
:102FD80000002210000031100010024000000140E3
:102FE8000008014000040140002808DB0901C9B2BB
:102FF80000F1604000F5614080F80013704700F070
:103008000F000901C9B2014B1954704714ED00E0D3
:1030180000B500F00700C0F1070CBCF1040F28BF91
:103028004FF0040C031D062B0FD9C31E4FF0FF3EB3
:103038000EFA0CF021EA000199400EFA03FE22EA8A
:103048000E0241EA02005DF804FB0023EEE70000EF
:10305800074AD36823F4E0631B041B0C000200F446
:10306800E060034343F0BF6343F40033D360704729
:1030780000ED00E010B50446054BD868C0F3022007
:10308800FFF7C6FF01462046FFF7AEFF10BD00BFA1
:1030980000ED00E00138B0F1807F0BD24FF0E02363
:1030A8005861054AF02182F8231000209861072210
:1030B8001A6170470120704700ED00E0704700007A
:1030C8002DE9F04186B04FF000088DF81780144DB7
:1030D8004FF0FF370297012401940DF1170600966F
:1030E80023466B22D0212846FFF790F88DF81780E9
:1030F80002970194009623461C22D0212846FFF708
:1031080085F88DF8178002970194009623461B22B4
:10311800D0212846FFF77AF806B0BDE8F08100BF55
:103128001C02002000B589B04FF0FF3302930E2334
:10313800019304AB009301233B22D0210248FFF7FF
:1031480017F909B05DF804FB1C0200204FF07E530C
:103158000360002343608360C3600361436183614C
:10316800C161026243628362C3627047000000006B
:103178002DE9F04F87B082460F4616461C46084692
:10318800FEF76AF9054631463046FEF765F901460D
:103198002846FEF759F8054621462046FEF75CF911
:1031A80001462846FEF750F8FDF7BAF801464FF0F9
:1031B8007E50FEF705FA054601463846FEF74CF9FB
:1031C800059029463046FEF747F9039029462046E0
:1031D800FEF742F90646DAF804700197DAF80CB0FF
:1031E80059463846FEF738F90546DAF80040DAF865
:1031F8000880CDF8088041462046FEF72DF90146A3
:103208002846FEF71FF8814621463846FEF724F97E
:10321800054641465846FEF71FF901462846FEF77F
:1032280013F8804621462046FEF716F94FF07C51E8
:10323800FEF708F8054659465846FEF70DF90146C7
:103248002846FEF701F8054601460398FEF704F9FB
:10325800074641463046FEF7FFF801463846FDF777
:10326800F1FF049049463046FEF7F6F8064629462F
:10327800059D2846FEF7F0F801463046FDF7E2FFC7
:10328800074641462846FEF7E7F8054649460398AB
:10329800FEF7E2F801462846FDF7D4FF8146DAF842
:1032A800205000212846FEF793FA002800F0C2813A
:1032B800DAF8106004992846FEF7CEF81399FEF75D
:1032C800CBF801463046FDF7BFFF8046CAF810002C
:1032D800DAF8146039462846FEF7BEF81399FEF767
:1032E800BBF801463046FDF7AFFF0646CAF81400A2
:1032F800DAF81830039349462846FEF7ADF81399D3
:10330800FEF7AAF801460398FDF79EFF0546CAF89E
:10331800180041461098FDF797FF10903146119814
:10332800FDF792FF119029461298FDF78DFF129034
:10333800DAF81C6004993046FEF78EF81099FDF70C
:1033480083FF054639463046FEF786F81199FDF7A2
:103358007BFF804649463046FEF77EF81299FDF716
:1033680073FF07464FF07C511398FEF775F8064631
:103378002946FEF771F8054641463046FEF76CF8D7
:10338800804639463046FEF767F88146019B03F1CF
:1033980000402946FEF760F806464146029F384637
:1033A800FEF75AF801463046FDF74CFF0646CDF8C1
:1033B8000C9049465846FEF74FF801463046FDF74F
:1033C80041FF01462046FDF73FFF8146CAF800004D
:1033D80029462046FEF740F8064603993846FEF788
:1033E8003BF801463046FDF72FFF06464146584652
:1033F800FEF732F801463046FDF724FF01460198F2
:10340800FDF722FF0646CAF8040041462046FEF7AB
:1034180023F8074603990198FEF71EF80146384637
:10342800FDF710FF074629465846FEF715F80146EE
:103438003846FDF709FF01460298FDF705FF0746E4
:10344800CAF8080003992046FEF706F804464146E4
:103458000198FEF701F801462046FDF7F5FE0446FF
:1034680029460298FDF7F8FF01462046FDF7EAFED7
:1034780001465846FDF7E8FE0546CAF80C004946DD
:103488004846FDF7E9FF044631463046FDF7E4FFBC
:1034980001462046FDF7D8FE044639463846FDF772
:1034A800DBFF01462046FDF7CFFE044629462846A5
:1034B800FDF7D2FF01462046FDF7C6FEFCF730FFB8
:1034C80001464FF07E50FEF77BF88046014648469D
:1034D800FDF7C2FF0446CAF8000041463046FDF732
:1034E800BBFF0646CAF8040041463846FDF7B4FF5C
:1034F8000746CAF8080041462846FDF7ADFF0546CD
:10350800CAF80C0001463046FDF7A6FF804639464A
:103518002046FDF7A1FF01464046FDF793FE4FF018
:103528004041FDF799FFFCF7D9FE4949FDF794FFA3
:10353800FDF7CAFB44A3D3E90023FDF747FDFDF7D8
:103548002DFECAF8240031462046FDF785FF804647
:1035580029463846FDF780FF01464046FDF774FED0
:10356800019021462046FDF777FF804631463046D8
:10357800FDF772FF814601464046FDF763FE83462C
:1035880039463846FDF768FF029001465846FDF770
:1035980059FE834629462846FDF75EFF03900146FB
:1035A8005846FDF751FE834601980146FDF74CFE4B
:1035B8005946FCF7B3FE2649FDF74EFFFDF784FB9D
:1035C80021A3D3E90023FDF701FDFDF7E7FDCAF8C4
:1035D800280039463046FDF73FFF06462946204673
:1035E800FDF73AFF01463046FDF72EFE04464946F0
:1035F8004046FDF729FE0299FDF724FE0399FDF7E1
:1036080021FE054621462046FDF71EFE2946FCF709
:1036180085FE0F49FDF720FFFDF756FB0AA3D3E906
:103628000023FDF7D3FCFDF7B9FDCAF82C0007B05D
:10363800BDE8F08F0023CAF81030CAF81430CAF871
:10364800183075E6AFF30080182D4454FB2109406B
:1036580000003443FFF732FD0B480C490C4A0023A5
:1036680002E0D458C4500433C4188C42F9D3094A30
:10367800094C002301E013600432A242FBD3FCF79B
:1036880005FEFEF719F970470000002064000020CD
:10369800303700086400002074020020FEE70000B4
:1036A800F8B500BFF8BC08BC9E467047F8B500BF27
:0836B800F8BC08BC9E467047F7
:1036C000DB0F49BFE4CB1640E4CB16C000000080FE
:1036D000DB0F4940DB0F49C03863ED3EDA0F493F4D
:1036E0005E987B3FDA0FC93F6937AC3168212233DE
:1036F000B40F14336821A233010200000203040551
:10370000060708090A0B0C0D0E0F10100000000030
:103710000102030400000000000000000102030495
:08372000060708090000000083
:043728003D18000840
:04372C001918000860
:10373000040000200000000064000020CC000020F5
:103740003401002000000000000000000000000024
:103750000000000000000000000000000000000069
:103760000000000000000000000000000000000059
:103770000000000000000000000000000000000049
:103780000000803F6042A20D010000001000000018
:0437900000127A00A9
:040000050800365D5C
:00000001FF
